{
  "contractName": "AirDrop",
  "abi": [
    {
      "constant": true,
      "inputs": [],
      "name": "name",
      "outputs": [
        {
          "name": "",
          "type": "string"
        }
      ],
      "payable": false,
      "stateMutability": "view",
      "type": "function"
    },
    {
      "constant": false,
      "inputs": [
        {
          "name": "spender",
          "type": "address"
        },
        {
          "name": "value",
          "type": "uint256"
        }
      ],
      "name": "approve",
      "outputs": [
        {
          "name": "",
          "type": "bool"
        }
      ],
      "payable": false,
      "stateMutability": "nonpayable",
      "type": "function"
    },
    {
      "constant": true,
      "inputs": [],
      "name": "airdrop_amount",
      "outputs": [
        {
          "name": "",
          "type": "uint256"
        }
      ],
      "payable": false,
      "stateMutability": "view",
      "type": "function"
    },
    {
      "constant": true,
      "inputs": [],
      "name": "totalSupply",
      "outputs": [
        {
          "name": "",
          "type": "uint256"
        }
      ],
      "payable": false,
      "stateMutability": "view",
      "type": "function"
    },
    {
      "constant": true,
      "inputs": [],
      "name": "reward",
      "outputs": [
        {
          "name": "",
          "type": "uint256"
        }
      ],
      "payable": false,
      "stateMutability": "view",
      "type": "function"
    },
    {
      "constant": true,
      "inputs": [],
      "name": "enabled",
      "outputs": [
        {
          "name": "",
          "type": "bool"
        }
      ],
      "payable": false,
      "stateMutability": "view",
      "type": "function"
    },
    {
      "constant": false,
      "inputs": [
        {
          "name": "sender",
          "type": "address"
        },
        {
          "name": "recipient",
          "type": "address"
        },
        {
          "name": "amount",
          "type": "uint256"
        }
      ],
      "name": "transferFrom",
      "outputs": [
        {
          "name": "",
          "type": "bool"
        }
      ],
      "payable": false,
      "stateMutability": "nonpayable",
      "type": "function"
    },
    {
      "constant": true,
      "inputs": [],
      "name": "decimals",
      "outputs": [
        {
          "name": "",
          "type": "uint8"
        }
      ],
      "payable": false,
      "stateMutability": "view",
      "type": "function"
    },
    {
      "constant": false,
      "inputs": [],
      "name": "enableContract",
      "outputs": [],
      "payable": false,
      "stateMutability": "nonpayable",
      "type": "function"
    },
    {
      "constant": false,
      "inputs": [
        {
          "name": "spender",
          "type": "address"
        },
        {
          "name": "addedValue",
          "type": "uint256"
        }
      ],
      "name": "increaseAllowance",
      "outputs": [
        {
          "name": "",
          "type": "bool"
        }
      ],
      "payable": false,
      "stateMutability": "nonpayable",
      "type": "function"
    },
    {
      "constant": true,
      "inputs": [],
      "name": "airdrop_token_coefficient",
      "outputs": [
        {
          "name": "",
          "type": "uint256"
        }
      ],
      "payable": false,
      "stateMutability": "view",
      "type": "function"
    },
    {
      "constant": false,
      "inputs": [],
      "name": "claimOwnership",
      "outputs": [],
      "payable": false,
      "stateMutability": "nonpayable",
      "type": "function"
    },
    {
      "constant": true,
      "inputs": [],
      "name": "reward_cnt_limit",
      "outputs": [
        {
          "name": "",
          "type": "uint256"
        }
      ],
      "payable": false,
      "stateMutability": "view",
      "type": "function"
    },
    {
      "constant": true,
      "inputs": [],
      "name": "recharge_token_radix",
      "outputs": [
        {
          "name": "",
          "type": "uint256"
        }
      ],
      "payable": false,
      "stateMutability": "view",
      "type": "function"
    },
    {
      "constant": true,
      "inputs": [
        {
          "name": "account",
          "type": "address"
        }
      ],
      "name": "balanceOf",
      "outputs": [
        {
          "name": "",
          "type": "uint256"
        }
      ],
      "payable": false,
      "stateMutability": "view",
      "type": "function"
    },
    {
      "constant": false,
      "inputs": [],
      "name": "renounceOwnership",
      "outputs": [],
      "payable": false,
      "stateMutability": "nonpayable",
      "type": "function"
    },
    {
      "constant": false,
      "inputs": [],
      "name": "disableContract",
      "outputs": [],
      "payable": false,
      "stateMutability": "nonpayable",
      "type": "function"
    },
    {
      "constant": true,
      "inputs": [],
      "name": "owner",
      "outputs": [
        {
          "name": "",
          "type": "address"
        }
      ],
      "payable": false,
      "stateMutability": "view",
      "type": "function"
    },
    {
      "constant": true,
      "inputs": [],
      "name": "symbol",
      "outputs": [
        {
          "name": "",
          "type": "string"
        }
      ],
      "payable": false,
      "stateMutability": "view",
      "type": "function"
    },
    {
      "constant": true,
      "inputs": [],
      "name": "airdrop_token_constant",
      "outputs": [
        {
          "name": "",
          "type": "uint256"
        }
      ],
      "payable": false,
      "stateMutability": "view",
      "type": "function"
    },
    {
      "constant": false,
      "inputs": [
        {
          "name": "spender",
          "type": "address"
        },
        {
          "name": "subtractedValue",
          "type": "uint256"
        }
      ],
      "name": "decreaseAllowance",
      "outputs": [
        {
          "name": "",
          "type": "bool"
        }
      ],
      "payable": false,
      "stateMutability": "nonpayable",
      "type": "function"
    },
    {
      "constant": false,
      "inputs": [
        {
          "name": "recipient",
          "type": "address"
        },
        {
          "name": "amount",
          "type": "uint256"
        }
      ],
      "name": "transfer",
      "outputs": [
        {
          "name": "",
          "type": "bool"
        }
      ],
      "payable": false,
      "stateMutability": "nonpayable",
      "type": "function"
    },
    {
      "constant": true,
      "inputs": [],
      "name": "recharge_token_coefficient",
      "outputs": [
        {
          "name": "",
          "type": "uint256"
        }
      ],
      "payable": false,
      "stateMutability": "view",
      "type": "function"
    },
    {
      "constant": true,
      "inputs": [
        {
          "name": "owner",
          "type": "address"
        },
        {
          "name": "spender",
          "type": "address"
        }
      ],
      "name": "allowance",
      "outputs": [
        {
          "name": "",
          "type": "uint256"
        }
      ],
      "payable": false,
      "stateMutability": "view",
      "type": "function"
    },
    {
      "constant": true,
      "inputs": [],
      "name": "pendingOwner",
      "outputs": [
        {
          "name": "",
          "type": "address"
        }
      ],
      "payable": false,
      "stateMutability": "view",
      "type": "function"
    },
    {
      "constant": true,
      "inputs": [],
      "name": "airdrop_token_radix",
      "outputs": [
        {
          "name": "",
          "type": "uint256"
        }
      ],
      "payable": false,
      "stateMutability": "view",
      "type": "function"
    },
    {
      "constant": false,
      "inputs": [
        {
          "name": "newOwner",
          "type": "address"
        }
      ],
      "name": "transferOwnership",
      "outputs": [],
      "payable": false,
      "stateMutability": "nonpayable",
      "type": "function"
    },
    {
      "inputs": [],
      "payable": false,
      "stateMutability": "nonpayable",
      "type": "constructor"
    },
    {
      "anonymous": false,
      "inputs": [
        {
          "indexed": true,
          "name": "from",
          "type": "address"
        },
        {
          "indexed": true,
          "name": "to",
          "type": "address"
        },
        {
          "indexed": false,
          "name": "value",
          "type": "uint256"
        }
      ],
      "name": "Transfer",
      "type": "event"
    },
    {
      "anonymous": false,
      "inputs": [
        {
          "indexed": true,
          "name": "owner",
          "type": "address"
        },
        {
          "indexed": true,
          "name": "spender",
          "type": "address"
        },
        {
          "indexed": false,
          "name": "value",
          "type": "uint256"
        }
      ],
      "name": "Approval",
      "type": "event"
    },
    {
      "anonymous": false,
      "inputs": [
        {
          "indexed": true,
          "name": "enabled",
          "type": "bool"
        }
      ],
      "name": "EnableStatusChanged",
      "type": "event"
    },
    {
      "anonymous": false,
      "inputs": [
        {
          "indexed": true,
          "name": "previousOwner",
          "type": "address"
        },
        {
          "indexed": true,
          "name": "newOwner",
          "type": "address"
        }
      ],
      "name": "OwnershipTransferred",
      "type": "event"
    },
    {
      "anonymous": false,
      "inputs": [
        {
          "indexed": false,
          "name": "sender",
          "type": "address"
        },
        {
          "indexed": false,
          "name": "target_addr",
          "type": "address"
        },
        {
          "indexed": false,
          "name": "inviter",
          "type": "address"
        },
        {
          "indexed": false,
          "name": "airdrop_amount",
          "type": "uint256"
        },
        {
          "indexed": false,
          "name": "reward",
          "type": "uint256"
        }
      ],
      "name": "ProvideAirDrop",
      "type": "event"
    },
    {
      "anonymous": false,
      "inputs": [
        {
          "indexed": false,
          "name": "sender",
          "type": "address"
        },
        {
          "indexed": false,
          "name": "recharge_amount",
          "type": "uint256"
        }
      ],
      "name": "Recharge",
      "type": "event"
    },
    {
      "constant": true,
      "inputs": [
        {
          "name": "user",
          "type": "address"
        }
      ],
      "name": "isManager",
      "outputs": [
        {
          "name": "",
          "type": "bool"
        }
      ],
      "payable": false,
      "stateMutability": "view",
      "type": "function"
    },
    {
      "constant": true,
      "inputs": [
        {
          "name": "number",
          "type": "uint256"
        }
      ],
      "name": "tokenForNumber",
      "outputs": [
        {
          "name": "",
          "type": "uint256"
        }
      ],
      "payable": false,
      "stateMutability": "view",
      "type": "function"
    },
    {
      "constant": true,
      "inputs": [
        {
          "name": "amount",
          "type": "uint256"
        }
      ],
      "name": "tokenForAmount",
      "outputs": [
        {
          "name": "",
          "type": "uint256"
        }
      ],
      "payable": false,
      "stateMutability": "view",
      "type": "function"
    },
    {
      "constant": false,
      "inputs": [
        {
          "name": "new_airdrop_amount",
          "type": "uint256"
        }
      ],
      "name": "setAirDropAmount",
      "outputs": [],
      "payable": false,
      "stateMutability": "nonpayable",
      "type": "function"
    },
    {
      "constant": false,
      "inputs": [
        {
          "name": "new_reward",
          "type": "uint256"
        }
      ],
      "name": "setReward",
      "outputs": [],
      "payable": false,
      "stateMutability": "nonpayable",
      "type": "function"
    },
    {
      "constant": false,
      "inputs": [
        {
          "name": "new_reward_cnt_limit",
          "type": "uint256"
        }
      ],
      "name": "setRewardCntLimit",
      "outputs": [],
      "payable": false,
      "stateMutability": "nonpayable",
      "type": "function"
    },
    {
      "constant": false,
      "inputs": [
        {
          "name": "_manager",
          "type": "address"
        }
      ],
      "name": "setManager",
      "outputs": [],
      "payable": false,
      "stateMutability": "nonpayable",
      "type": "function"
    },
    {
      "constant": false,
      "inputs": [
        {
          "name": "_manager",
          "type": "address"
        }
      ],
      "name": "removeManager",
      "outputs": [],
      "payable": false,
      "stateMutability": "nonpayable",
      "type": "function"
    },
    {
      "constant": true,
      "inputs": [
        {
          "name": "account",
          "type": "address"
        }
      ],
      "name": "balanceOfCAT",
      "outputs": [
        {
          "name": "",
          "type": "uint256"
        }
      ],
      "payable": false,
      "stateMutability": "view",
      "type": "function"
    },
    {
      "constant": false,
      "inputs": [
        {
          "name": "target_addr",
          "type": "address"
        },
        {
          "name": "inviter",
          "type": "address"
        }
      ],
      "name": "provideAirDrop",
      "outputs": [],
      "payable": true,
      "stateMutability": "payable",
      "type": "function"
    },
    {
      "constant": false,
      "inputs": [],
      "name": "recharge",
      "outputs": [],
      "payable": true,
      "stateMutability": "payable",
      "type": "function"
    },
    {
      "constant": true,
      "inputs": [],
      "name": "getContractBalance",
      "outputs": [
        {
          "name": "",
          "type": "uint256"
        }
      ],
      "payable": false,
      "stateMutability": "view",
      "type": "function"
    }
  ],
  "bytecode": "0x608060405260018060146101000a81548160ff021916908315150217905550674563918244f40000600955674563918244f40000600a556064600b5568056bc75e2d63100000600c55600a600d556064600e55670de0b6b3a7640000600f55670de0b6b3a76400006010553480156200007757600080fd5b506040805190810160405280601381526020017f4370636861696e41697244726f70546f6b656e000000000000000000000000008152506040805190810160405280600381526020017f434154000000000000000000000000000000000000000000000000000000000081525060126000336000806101000a81548173ffffffffffffffffffffffffffffffffffffffff021916908373ffffffffffffffffffffffffffffffffffffffff1602179055508360049080519060200190620001409291906200044c565b508260059080519060200190620001599291906200044c565b5081600660006101000a81548160ff021916908360ff16021790555062000196336012600a0a8302620001e1640100000000026401000000009004565b5050505033600860006101000a81548173ffffffffffffffffffffffffffffffffffffffff021916908373ffffffffffffffffffffffffffffffffffffffff160217905550620004fb565b600073ffffffffffffffffffffffffffffffffffffffff168273ffffffffffffffffffffffffffffffffffffffff161415151562000287576040517f08c379a000000000000000000000000000000000000000000000000000000000815260040180806020018281038252601f8152602001807f45524332303a206d696e7420746f20746865207a65726f20616464726573730081525060200191505060405180910390fd5b620002ac81600754620003c164010000000002620035fc179091906401000000009004565b6007819055506200031481600260008573ffffffffffffffffffffffffffffffffffffffff1673ffffffffffffffffffffffffffffffffffffffff16815260200190815260200160002054620003c164010000000002620035fc179091906401000000009004565b600260008473ffffffffffffffffffffffffffffffffffffffff1673ffffffffffffffffffffffffffffffffffffffff168152602001908152602001600020819055508173ffffffffffffffffffffffffffffffffffffffff16600073ffffffffffffffffffffffffffffffffffffffff167fddf252ad1be2c89b69c2b068fc378daa952ba7f163c4a11628f55a4df523b3ef836040518082815260200191505060405180910390a35050565b600080828401905083811015151562000442576040517f08c379a000000000000000000000000000000000000000000000000000000000815260040180806020018281038252601b8152602001807f536166654d6174683a206164646974696f6e206f766572666c6f77000000000081525060200191505060405180910390fd5b8091505092915050565b828054600181600116156101000203166002900490600052602060002090601f016020900481019282601f106200048f57805160ff1916838001178555620004c0565b82800160010185558215620004c0579182015b82811115620004bf578251825591602001919060010190620004a2565b5b509050620004cf9190620004d3565b5090565b620004f891905b80821115620004f4576000816000905550600101620004da565b5090565b90565b613bd7806200050b6000396000f3006080604052600436106101e3576000357c0100000000000000000000000000000000000000000000000000000000900463ffffffff16806306fdde03146101e8578063095ea7b3146102785780630b32300c146102dd57806318160ddd14610308578063228cb73314610333578063238dafe01461035e57806323b872dd1461038d578063293be45614610412578063313ce5671461043f578063367edd321461047057806339509351146104875780633abcf319146104ec578063488918f71461051957806348fe69ad1461056f5780634cddae281461059a5780634e71e0c8146105a4578063538065b7146105bb578063548cba8d146105e6578063582b55ac146106275780636f9fb98a14610652578063704109df1461067d57806370a08231146106be578063715018a614610715578063894ba8331461072c5780638da5cb5b1461074357806395d89b411461079a5780639fff3f0f1461082a578063a23cfb3614610855578063a457c2d714610882578063a9059cbb146108e7578063ac18de431461094c578063cdafe2761461098f578063d02894da146109e6578063d0ebdbe714610a11578063dd62ed3e14610a54578063e30c397814610acb578063e45b1e7314610b22578063f2fde38b14610b4d578063f3ae241514610b90575b600080fd5b3480156101f457600080fd5b506101fd610beb565b6040518080602001828103825283818151815260200191508051906020019080838360005b8381101561023d578082015181840152602081019050610222565b50505050905090810190601f16801561026a5780820380516001836020036101000a031916815260200191505b509250505060405180910390f35b34801561028457600080fd5b506102c3600480360381019080803573ffffffffffffffffffffffffffffffffffffffff16906020019092919080359060200190929190505050610c8d565b604051808215151515815260200191505060405180910390f35b3480156102e957600080fd5b506102f2610ca4565b6040518082815260200191505060405180910390f35b34801561031457600080fd5b5061031d610caa565b6040518082815260200191505060405180910390f35b34801561033f57600080fd5b50610348610cb4565b6040518082815260200191505060405180910390f35b34801561036a57600080fd5b50610373610cba565b604051808215151515815260200191505060405180910390f35b34801561039957600080fd5b506103f8600480360381019080803573ffffffffffffffffffffffffffffffffffffffff169060200190929190803573ffffffffffffffffffffffffffffffffffffffff16906020019092919080359060200190929190505050610ccd565b604051808215151515815260200191505060405180910390f35b34801561041e57600080fd5b5061043d60048036038101908080359060200190929190505050610d7e565b005b34801561044b57600080fd5b50610454611044565b604051808260ff1660ff16815260200191505060405180910390f35b34801561047c57600080fd5b5061048561105b565b005b34801561049357600080fd5b506104d2600480360381019080803573ffffffffffffffffffffffffffffffffffffffff169060200190929190803590602001909291905050506111a0565b604051808215151515815260200191505060405180910390f35b3480156104f857600080fd5b5061051760048036038101908080359060200190929190505050611245565b005b61056d600480360381019080803573ffffffffffffffffffffffffffffffffffffffff169060200190929190803573ffffffffffffffffffffffffffffffffffffffff16906020019092919050505061150b565b005b34801561057b57600080fd5b50610584611c3d565b6040518082815260200191505060405180910390f35b6105a2611c43565b005b3480156105b057600080fd5b506105b9611d69565b005b3480156105c757600080fd5b506105d0611f71565b6040518082815260200191505060405180910390f35b3480156105f257600080fd5b5061061160048036038101908080359060200190929190505050611f77565b6040518082815260200191505060405180910390f35b34801561063357600080fd5b5061063c612007565b6040518082815260200191505060405180910390f35b34801561065e57600080fd5b5061066761200d565b6040518082815260200191505060405180910390f35b34801561068957600080fd5b506106a86004803603810190808035906020019092919050505061202c565b6040518082815260200191505060405180910390f35b3480156106ca57600080fd5b506106ff600480360381019080803573ffffffffffffffffffffffffffffffffffffffff1690602001909291905050506120a1565b6040518082815260200191505060405180910390f35b34801561072157600080fd5b5061072a6120ea565b005b34801561073857600080fd5b506107416121e1565b005b34801561074f57600080fd5b50610758612327565b604051808273ffffffffffffffffffffffffffffffffffffffff1673ffffffffffffffffffffffffffffffffffffffff16815260200191505060405180910390f35b3480156107a657600080fd5b506107af61234c565b6040518080602001828103825283818151815260200191508051906020019080838360005b838110156107ef5780820151818401526020810190506107d4565b50505050905090810190601f16801561081c5780820380516001836020036101000a031916815260200191505b509250505060405180910390f35b34801561083657600080fd5b5061083f6123ee565b6040518082815260200191505060405180910390f35b34801561086157600080fd5b50610880600480360381019080803590602001909291905050506123f4565b005b34801561088e57600080fd5b506108cd600480360381019080803573ffffffffffffffffffffffffffffffffffffffff16906020019092919080359060200190929190505050612686565b604051808215151515815260200191505060405180910390f35b3480156108f357600080fd5b50610932600480360381019080803573ffffffffffffffffffffffffffffffffffffffff1690602001909291908035906020019092919050505061272b565b604051808215151515815260200191505060405180910390f35b34801561095857600080fd5b5061098d600480360381019080803573ffffffffffffffffffffffffffffffffffffffff169060200190929190505050612742565b005b34801561099b57600080fd5b506109d0600480360381019080803573ffffffffffffffffffffffffffffffffffffffff1690602001909291905050506129fa565b6040518082815260200191505060405180910390f35b3480156109f257600080fd5b506109fb612ad9565b6040518082815260200191505060405180910390f35b348015610a1d57600080fd5b50610a52600480360381019080803573ffffffffffffffffffffffffffffffffffffffff169060200190929190505050612adf565b005b348015610a6057600080fd5b50610ab5600480360381019080803573ffffffffffffffffffffffffffffffffffffffff169060200190929190803573ffffffffffffffffffffffffffffffffffffffff169060200190929190505050612d71565b6040518082815260200191505060405180910390f35b348015610ad757600080fd5b50610ae0612df8565b604051808273ffffffffffffffffffffffffffffffffffffffff1673ffffffffffffffffffffffffffffffffffffffff16815260200191505060405180910390f35b348015610b2e57600080fd5b50610b37612e1e565b6040518082815260200191505060405180910390f35b348015610b5957600080fd5b50610b8e600480360381019080803573ffffffffffffffffffffffffffffffffffffffff169060200190929190505050612e24565b005b348015610b9c57600080fd5b50610bd1600480360381019080803573ffffffffffffffffffffffffffffffffffffffff169060200190929190505050612f53565b604051808215151515815260200191505060405180910390f35b606060048054600181600116156101000203166002900480601f016020809104026020016040519081016040528092919081815260200182805460018160011615610100020316600290048015610c835780601f10610c5857610100808354040283529160200191610c83565b820191906000526020600020905b815481529060010190602001808311610c6657829003601f168201915b5050505050905090565b6000610c9a338484612fa9565b6001905092915050565b60095481565b6000600754905090565b600a5481565b600160149054906101000a900460ff1681565b6000610cda84848461322a565b610d738433610d6e85600360008a73ffffffffffffffffffffffffffffffffffffffff1673ffffffffffffffffffffffffffffffffffffffff16815260200190815260200160002060003373ffffffffffffffffffffffffffffffffffffffff1673ffffffffffffffffffffffffffffffffffffffff168152602001908152602001600020546135b290919063ffffffff16565b612fa9565b600190509392505050565b600160149054906101000a900460ff161515610e02576040517f08c379a00000000000000000000000000000000000000000000000000000000081526004018080602001828103825260188152602001807f54686520436f6e74726163742069732064697361626c6564000000000000000081525060200191505060405180910390fd5b600860009054906101000a900473ffffffffffffffffffffffffffffffffffffffff1673ffffffffffffffffffffffffffffffffffffffff163373ffffffffffffffffffffffffffffffffffffffff16141515610eed576040517f08c379a00000000000000000000000000000000000000000000000000000000081526004018080602001828103825260258152602001807f596f75277265206e6f7420746865206f776e6572206f66207468697320636f6e81526020017f747261637400000000000000000000000000000000000000000000000000000081525060400191505060405180910390fd5b670de0b6b3a76400008110151515610f93576040517f08c379a00000000000000000000000000000000000000000000000000000000081526004018080602001828103825260218152602001807f546865207265776172642063616e206e6f74206265206c657373207468616e2081526020017f310000000000000000000000000000000000000000000000000000000000000081525060400191505060405180910390fd5b68056bc75e2d63100000811115151561103a576040517f08c379a00000000000000000000000000000000000000000000000000000000081526004018080602001828103825260268152602001807f546865207265776172642063616e206e6f74206265206772656174657220746881526020017f616e20313030000000000000000000000000000000000000000000000000000081525060400191505060405180910390fd5b80600a8190555050565b6000600660009054906101000a900460ff16905090565b600860009054906101000a900473ffffffffffffffffffffffffffffffffffffffff1673ffffffffffffffffffffffffffffffffffffffff163373ffffffffffffffffffffffffffffffffffffffff16141515611146576040517f08c379a00000000000000000000000000000000000000000000000000000000081526004018080602001828103825260258152602001807f596f75277265206e6f7420746865206f776e6572206f66207468697320636f6e81526020017f747261637400000000000000000000000000000000000000000000000000000081525060400191505060405180910390fd5b60018060146101000a81548160ff021916908315150217905550600160149054906101000a900460ff1615157f44cd398f157fa2dcc23e1a3238d8ec602ef8ed03c90372c10918d81d69e36ab160405160405180910390a2565b600061123b338461123685600360003373ffffffffffffffffffffffffffffffffffffffff1673ffffffffffffffffffffffffffffffffffffffff16815260200190815260200160002060008973ffffffffffffffffffffffffffffffffffffffff1673ffffffffffffffffffffffffffffffffffffffff168152602001908152602001600020546135fc90919063ffffffff16565b612fa9565b6001905092915050565b600160149054906101000a900460ff1615156112c9576040517f08c379a00000000000000000000000000000000000000000000000000000000081526004018080602001828103825260188152602001807f54686520436f6e74726163742069732064697361626c6564000000000000000081525060200191505060405180910390fd5b600860009054906101000a900473ffffffffffffffffffffffffffffffffffffffff1673ffffffffffffffffffffffffffffffffffffffff163373ffffffffffffffffffffffffffffffffffffffff161415156113b4576040517f08c379a00000000000000000000000000000000000000000000000000000000081526004018080602001828103825260258152602001807f596f75277265206e6f7420746865206f776e6572206f66207468697320636f6e81526020017f747261637400000000000000000000000000000000000000000000000000000081525060400191505060405180910390fd5b670de0b6b3a7640000811015151561145a576040517f08c379a00000000000000000000000000000000000000000000000000000000081526004018080602001828103825260218152602001807f54686520616d6f756e742063616e206e6f74206265206c657373207468616e2081526020017f310000000000000000000000000000000000000000000000000000000000000081525060400191505060405180910390fd5b68056bc75e2d631000008111151515611501576040517f08c379a00000000000000000000000000000000000000000000000000000000081526004018080602001828103825260268152602001807f54686520616d6f756e742063616e206e6f74206265206772656174657220746881526020017f616e20313030000000000000000000000000000000000000000000000000000081525060400191505060405180910390fd5b8060098190555050565b6000806000600160149054906101000a900460ff161515611594576040517f08c379a00000000000000000000000000000000000000000000000000000000081526004018080602001828103825260188152602001807f54686520436f6e74726163742069732064697361626c6564000000000000000081525060200191505060405180910390fd5b60011515601260003373ffffffffffffffffffffffffffffffffffffffff1673ffffffffffffffffffffffffffffffffffffffff16815260200190815260200160002060009054906101000a900460ff161515141515611682576040517f08c379a00000000000000000000000000000000000000000000000000000000081526004018080602001828103825260258152602001807f596f75277265206e6f7420746865206f776e6572206f66207468697320636f6e81526020017f747261637400000000000000000000000000000000000000000000000000000081525060400191505060405180910390fd5b8373ffffffffffffffffffffffffffffffffffffffff168573ffffffffffffffffffffffffffffffffffffffff1614151515611726576040517f08c379a000000000000000000000000000000000000000000000000000000000815260040180806020018281038252601d8152602001807f7461726765745f616464722063616e6e6f7420626520696e766974657200000081525060200191505060405180910390fd5b6002600954023073ffffffffffffffffffffffffffffffffffffffff16311115156117df576040517f08c379a00000000000000000000000000000000000000000000000000000000081526004018080602001828103825260318152602001807f62616c616e6365206f66207468697320636f6e7472616374206973206e6f742081526020017f656e6f75676820746f2061697264726f7000000000000000000000000000000081525060400191505060405180910390fd5b6001601160008773ffffffffffffffffffffffffffffffffffffffff1673ffffffffffffffffffffffffffffffffffffffff16815260200190815260200160002060000160146101000a81548160ff0219169083151502179055508473ffffffffffffffffffffffffffffffffffffffff166108fc6009549081150290604051600060405180830381858888f19350505050158015611882573d6000803e3d6000fd5b503073ffffffffffffffffffffffffffffffffffffffff1663548cba8d60016040518263ffffffff167c010000000000000000000000000000000000000000000000000000000002815260040180828152602001915050602060405180830381600087803b1580156118f357600080fd5b505af1158015611907573d6000803e3d6000fd5b505050506040513d602081101561191d57600080fd5b8101908080519060200190929190505050925061193a8584613686565b60009150600073ffffffffffffffffffffffffffffffffffffffff168473ffffffffffffffffffffffffffffffffffffffff16141515611b5957600b54601160008673ffffffffffffffffffffffffffffffffffffffff1673ffffffffffffffffffffffffffffffffffffffff168152602001908152602001600020600101541015611b58576001601160008673ffffffffffffffffffffffffffffffffffffffff1673ffffffffffffffffffffffffffffffffffffffff16815260200190815260200160002060010160008282540192505081905550600a5491508373ffffffffffffffffffffffffffffffffffffffff166108fc600a549081150290604051600060405180830381858888f19350505050158015611a5e573d6000803e3d6000fd5b503073ffffffffffffffffffffffffffffffffffffffff1663548cba8d601160008773ffffffffffffffffffffffffffffffffffffffff1673ffffffffffffffffffffffffffffffffffffffff168152602001908152602001600020600101546040518263ffffffff167c010000000000000000000000000000000000000000000000000000000002815260040180828152602001915050602060405180830381600087803b158015611b1057600080fd5b505af1158015611b24573d6000803e3d6000fd5b505050506040513d6020811015611b3a57600080fd5b81019080805190602001909291905050509050611b578482613686565b5b5b7ffd5753dc7d75130d3abe49d54be6a555c8b43c392db717aba133581cbbc2d10a33868660095486604051808673ffffffffffffffffffffffffffffffffffffffff1673ffffffffffffffffffffffffffffffffffffffff1681526020018573ffffffffffffffffffffffffffffffffffffffff1673ffffffffffffffffffffffffffffffffffffffff1681526020018473ffffffffffffffffffffffffffffffffffffffff1673ffffffffffffffffffffffffffffffffffffffff1681526020018381526020018281526020019550505050505060405180910390a15050505050565b600f5481565b60003073ffffffffffffffffffffffffffffffffffffffff1663704109df346040518263ffffffff167c010000000000000000000000000000000000000000000000000000000002815260040180828152602001915050602060405180830381600087803b158015611cb457600080fd5b505af1158015611cc8573d6000803e3d6000fd5b505050506040513d6020811015611cde57600080fd5b81019080805190602001909291905050509050611cfb3382613686565b7f78d9de6f3ad1cae9e0cbcbaa5267fd90f6a6728831eec42b7c147b398b2269243334604051808373ffffffffffffffffffffffffffffffffffffffff1673ffffffffffffffffffffffffffffffffffffffff1681526020018281526020019250505060405180910390a150565b600160009054906101000a900473ffffffffffffffffffffffffffffffffffffffff1673ffffffffffffffffffffffffffffffffffffffff163373ffffffffffffffffffffffffffffffffffffffff16141515611e2e576040517f08c379a00000000000000000000000000000000000000000000000000000000081526004018080602001828103825260168152602001807f50656e64696e67206f776e65722072657175697265640000000000000000000081525060200191505060405180910390fd5b600160009054906101000a900473ffffffffffffffffffffffffffffffffffffffff1673ffffffffffffffffffffffffffffffffffffffff166000809054906101000a900473ffffffffffffffffffffffffffffffffffffffff1673ffffffffffffffffffffffffffffffffffffffff167f8be0079c531659141344cd1fd0a4f28419497f9722a3daafe3b4186f6b6457e060405160405180910390a3600160009054906101000a900473ffffffffffffffffffffffffffffffffffffffff166000806101000a81548173ffffffffffffffffffffffffffffffffffffffff021916908373ffffffffffffffffffffffffffffffffffffffff1602179055506000600160006101000a81548173ffffffffffffffffffffffffffffffffffffffff021916908373ffffffffffffffffffffffffffffffffffffffff160217905550565b600b5481565b6000806000806000806009600a0a9450600e5487019350611fa385600e5461384590919063ffffffff16565b9250611fb8848461391290919063ffffffff16565b9150611fcf85600f5461391290919063ffffffff16565b9050611ff8601054611fea838561384590919063ffffffff16565b6135fc90919063ffffffff16565b91508195505050505050919050565b600c5481565b60003073ffffffffffffffffffffffffffffffffffffffff1631905090565b6000806000806009600a0a9250600c5485019150612053838361391290919063ffffffff16565b9150612068828661391290919063ffffffff16565b905061207d838261384590919063ffffffff16565b9050612094600d548261384590919063ffffffff16565b9050809350505050919050565b6000600260008373ffffffffffffffffffffffffffffffffffffffff1673ffffffffffffffffffffffffffffffffffffffff168152602001908152602001600020549050919050565b600860009054906101000a900473ffffffffffffffffffffffffffffffffffffffff1673ffffffffffffffffffffffffffffffffffffffff163373ffffffffffffffffffffffffffffffffffffffff161415156121d5576040517f08c379a00000000000000000000000000000000000000000000000000000000081526004018080602001828103825260258152602001807f596f75277265206e6f7420746865206f776e6572206f66207468697320636f6e81526020017f747261637400000000000000000000000000000000000000000000000000000081525060400191505060405180910390fd5b6121df600061395c565b565b600860009054906101000a900473ffffffffffffffffffffffffffffffffffffffff1673ffffffffffffffffffffffffffffffffffffffff163373ffffffffffffffffffffffffffffffffffffffff161415156122cc576040517f08c379a00000000000000000000000000000000000000000000000000000000081526004018080602001828103825260258152602001807f596f75277265206e6f7420746865206f776e6572206f66207468697320636f6e81526020017f747261637400000000000000000000000000000000000000000000000000000081525060400191505060405180910390fd5b6000600160146101000a81548160ff021916908315150217905550600160149054906101000a900460ff1615157f44cd398f157fa2dcc23e1a3238d8ec602ef8ed03c90372c10918d81d69e36ab160405160405180910390a2565b6000809054906101000a900473ffffffffffffffffffffffffffffffffffffffff1681565b606060058054600181600116156101000203166002900480601f0160208091040260200160405190810160405280929190818152602001828054600181600116156101000203166002900480156123e45780601f106123b9576101008083540402835291602001916123e4565b820191906000526020600020905b8154815290600101906020018083116123c757829003601f168201915b5050505050905090565b60105481565b600160149054906101000a900460ff161515612478576040517f08c379a00000000000000000000000000000000000000000000000000000000081526004018080602001828103825260188152602001807f54686520436f6e74726163742069732064697361626c6564000000000000000081525060200191505060405180910390fd5b600860009054906101000a900473ffffffffffffffffffffffffffffffffffffffff1673ffffffffffffffffffffffffffffffffffffffff163373ffffffffffffffffffffffffffffffffffffffff16141515612563576040517f08c379a00000000000000000000000000000000000000000000000000000000081526004018080602001828103825260258152602001807f596f75277265206e6f7420746865206f776e6572206f66207468697320636f6e81526020017f747261637400000000000000000000000000000000000000000000000000000081525060400191505060405180910390fd5b600181101515156125dc576040517f08c379a00000000000000000000000000000000000000000000000000000000081526004018080602001828103825260208152602001807f546865206c696d69742063616e206e6f74206265206c657373207468616e203181525060200191505060405180910390fd5b612710811115151561267c576040517f08c379a00000000000000000000000000000000000000000000000000000000081526004018080602001828103825260278152602001807f546865206c696d69742063616e206e6f7420626520677265617465722074686181526020017f6e2031303030300000000000000000000000000000000000000000000000000081525060400191505060405180910390fd5b80600b8190555050565b6000612721338461271c85600360003373ffffffffffffffffffffffffffffffffffffffff1673ffffffffffffffffffffffffffffffffffffffff16815260200190815260200160002060008973ffffffffffffffffffffffffffffffffffffffff1673ffffffffffffffffffffffffffffffffffffffff168152602001908152602001600020546135b290919063ffffffff16565b612fa9565b6001905092915050565b600061273833848461322a565b6001905092915050565b600160149054906101000a900460ff1615156127c6576040517f08c379a00000000000000000000000000000000000000000000000000000000081526004018080602001828103825260188152602001807f54686520436f6e74726163742069732064697361626c6564000000000000000081525060200191505060405180910390fd5b600860009054906101000a900473ffffffffffffffffffffffffffffffffffffffff1673ffffffffffffffffffffffffffffffffffffffff163373ffffffffffffffffffffffffffffffffffffffff161415156128b1576040517f08c379a00000000000000000000000000000000000000000000000000000000081526004018080602001828103825260258152602001807f596f75277265206e6f7420746865206f776e6572206f66207468697320636f6e81526020017f747261637400000000000000000000000000000000000000000000000000000081525060400191505060405180910390fd5b60011515601260008373ffffffffffffffffffffffffffffffffffffffff1673ffffffffffffffffffffffffffffffffffffffff16815260200190815260200160002060009054906101000a900460ff16151514151561299f576040517f08c379a00000000000000000000000000000000000000000000000000000000081526004018080602001828103825260268152602001807f54686973206164647265737320776173206e6f206c6f6e67657220746865206d81526020017f616e61676572000000000000000000000000000000000000000000000000000081525060400191505060405180910390fd5b6000601260008373ffffffffffffffffffffffffffffffffffffffff1673ffffffffffffffffffffffffffffffffffffffff16815260200190815260200160002060006101000a81548160ff02191690831515021790555050565b60003073ffffffffffffffffffffffffffffffffffffffff166370a08231836040518263ffffffff167c0100000000000000000000000000000000000000000000000000000000028152600401808273ffffffffffffffffffffffffffffffffffffffff1673ffffffffffffffffffffffffffffffffffffffff168152602001915050602060405180830381600087803b158015612a9757600080fd5b505af1158015612aab573d6000803e3d6000fd5b505050506040513d6020811015612ac157600080fd5b81019080805190602001909291905050509050919050565b600d5481565b600160149054906101000a900460ff161515612b63576040517f08c379a00000000000000000000000000000000000000000000000000000000081526004018080602001828103825260188152602001807f54686520436f6e74726163742069732064697361626c6564000000000000000081525060200191505060405180910390fd5b600860009054906101000a900473ffffffffffffffffffffffffffffffffffffffff1673ffffffffffffffffffffffffffffffffffffffff163373ffffffffffffffffffffffffffffffffffffffff16141515612c4e576040517f08c379a00000000000000000000000000000000000000000000000000000000081526004018080602001828103825260258152602001807f596f75277265206e6f7420746865206f776e6572206f66207468697320636f6e81526020017f747261637400000000000000000000000000000000000000000000000000000081525060400191505060405180910390fd5b60001515601260008373ffffffffffffffffffffffffffffffffffffffff1673ffffffffffffffffffffffffffffffffffffffff16815260200190815260200160002060009054906101000a900460ff161515141515612d16576040517f08c379a00000000000000000000000000000000000000000000000000000000081526004018080602001828103825260208152602001807f5468697320616464726573732077617320616c7265616479206d616e6167657281525060200191505060405180910390fd5b6001601260008373ffffffffffffffffffffffffffffffffffffffff1673ffffffffffffffffffffffffffffffffffffffff16815260200190815260200160002060006101000a81548160ff02191690831515021790555050565b6000600360008473ffffffffffffffffffffffffffffffffffffffff1673ffffffffffffffffffffffffffffffffffffffff16815260200190815260200160002060008373ffffffffffffffffffffffffffffffffffffffff1673ffffffffffffffffffffffffffffffffffffffff16815260200190815260200160002054905092915050565b600160009054906101000a900473ffffffffffffffffffffffffffffffffffffffff1681565b600e5481565b600860009054906101000a900473ffffffffffffffffffffffffffffffffffffffff1673ffffffffffffffffffffffffffffffffffffffff163373ffffffffffffffffffffffffffffffffffffffff16141515612f0f576040517f08c379a00000000000000000000000000000000000000000000000000000000081526004018080602001828103825260258152602001807f596f75277265206e6f7420746865206f776e6572206f66207468697320636f6e81526020017f747261637400000000000000000000000000000000000000000000000000000081525060400191505060405180910390fd5b80600160006101000a81548173ffffffffffffffffffffffffffffffffffffffff021916908373ffffffffffffffffffffffffffffffffffffffff16021790555050565b6000601260008373ffffffffffffffffffffffffffffffffffffffff1673ffffffffffffffffffffffffffffffffffffffff16815260200190815260200160002060009054906101000a900460ff169050919050565b600073ffffffffffffffffffffffffffffffffffffffff168373ffffffffffffffffffffffffffffffffffffffff1614151515613074576040517f08c379a00000000000000000000000000000000000000000000000000000000081526004018080602001828103825260248152602001807f45524332303a20617070726f76652066726f6d20746865207a65726f2061646481526020017f726573730000000000000000000000000000000000000000000000000000000081525060400191505060405180910390fd5b600073ffffffffffffffffffffffffffffffffffffffff168273ffffffffffffffffffffffffffffffffffffffff161415151561313f576040517f08c379a00000000000000000000000000000000000000000000000000000000081526004018080602001828103825260228152602001807f45524332303a20617070726f766520746f20746865207a65726f20616464726581526020017f737300000000000000000000000000000000000000000000000000000000000081525060400191505060405180910390fd5b80600360008573ffffffffffffffffffffffffffffffffffffffff1673ffffffffffffffffffffffffffffffffffffffff16815260200190815260200160002060008473ffffffffffffffffffffffffffffffffffffffff1673ffffffffffffffffffffffffffffffffffffffff168152602001908152602001600020819055508173ffffffffffffffffffffffffffffffffffffffff168373ffffffffffffffffffffffffffffffffffffffff167f8c5be1e5ebec7d5bd14f71427d1e84f3dd0314c0f7b2291e5b200ac8c7c3b925836040518082815260200191505060405180910390a3505050565b600073ffffffffffffffffffffffffffffffffffffffff168373ffffffffffffffffffffffffffffffffffffffff16141515156132f5576040517f08c379a00000000000000000000000000000000000000000000000000000000081526004018080602001828103825260258152602001807f45524332303a207472616e736665722066726f6d20746865207a65726f20616481526020017f647265737300000000000000000000000000000000000000000000000000000081525060400191505060405180910390fd5b600073ffffffffffffffffffffffffffffffffffffffff168273ffffffffffffffffffffffffffffffffffffffff16141515156133c0576040517f08c379a00000000000000000000000000000000000000000000000000000000081526004018080602001828103825260238152602001807f45524332303a207472616e7366657220746f20746865207a65726f206164647281526020017f657373000000000000000000000000000000000000000000000000000000000081525060400191505060405180910390fd5b61347081606060405190810160405280602681526020017f45524332303a207472616e7366657220616d6f756e742065786365656473206281526020017f616c616e63650000000000000000000000000000000000000000000000000000815250600260008773ffffffffffffffffffffffffffffffffffffffff1673ffffffffffffffffffffffffffffffffffffffff16815260200190815260200160002054613a209092919063ffffffff16565b600260008573ffffffffffffffffffffffffffffffffffffffff1673ffffffffffffffffffffffffffffffffffffffff1681526020019081526020016000208190555061350581600260008573ffffffffffffffffffffffffffffffffffffffff1673ffffffffffffffffffffffffffffffffffffffff168152602001908152602001600020546135fc90919063ffffffff16565b600260008473ffffffffffffffffffffffffffffffffffffffff1673ffffffffffffffffffffffffffffffffffffffff168152602001908152602001600020819055508173ffffffffffffffffffffffffffffffffffffffff168373ffffffffffffffffffffffffffffffffffffffff167fddf252ad1be2c89b69c2b068fc378daa952ba7f163c4a11628f55a4df523b3ef836040518082815260200191505060405180910390a3505050565b60006135f483836040805190810160405280601e81526020017f536166654d6174683a207375627472616374696f6e206f766572666c6f770000815250613a20565b905092915050565b600080828401905083811015151561367c576040517f08c379a000000000000000000000000000000000000000000000000000000000815260040180806020018281038252601b8152602001807f536166654d6174683a206164646974696f6e206f766572666c6f77000000000081525060200191505060405180910390fd5b8091505092915050565b600073ffffffffffffffffffffffffffffffffffffffff168273ffffffffffffffffffffffffffffffffffffffff161415151561372b576040517f08c379a000000000000000000000000000000000000000000000000000000000815260040180806020018281038252601f8152602001807f45524332303a206d696e7420746f20746865207a65726f20616464726573730081525060200191505060405180910390fd5b613740816007546135fc90919063ffffffff16565b60078190555061379881600260008573ffffffffffffffffffffffffffffffffffffffff1673ffffffffffffffffffffffffffffffffffffffff168152602001908152602001600020546135fc90919063ffffffff16565b600260008473ffffffffffffffffffffffffffffffffffffffff1673ffffffffffffffffffffffffffffffffffffffff168152602001908152602001600020819055508173ffffffffffffffffffffffffffffffffffffffff16600073ffffffffffffffffffffffffffffffffffffffff167fddf252ad1be2c89b69c2b068fc378daa952ba7f163c4a11628f55a4df523b3ef836040518082815260200191505060405180910390a35050565b600080600084141561385a576000915061390b565b828402905082848281151561386b57fe5b04141515613907576040517f08c379a00000000000000000000000000000000000000000000000000000000081526004018080602001828103825260218152602001807f536166654d6174683a206d756c7469706c69636174696f6e206f766572666c6f81526020017f770000000000000000000000000000000000000000000000000000000000000081525060400191505060405180910390fd5b8091505b5092915050565b600061395483836040805190810160405280601a81526020017f536166654d6174683a206469766973696f6e206279207a65726f000000000000815250613ae1565b905092915050565b60008060009054906101000a900473ffffffffffffffffffffffffffffffffffffffff169050816000806101000a81548173ffffffffffffffffffffffffffffffffffffffff021916908373ffffffffffffffffffffffffffffffffffffffff1602179055508173ffffffffffffffffffffffffffffffffffffffff168173ffffffffffffffffffffffffffffffffffffffff167f8be0079c531659141344cd1fd0a4f28419497f9722a3daafe3b4186f6b6457e060405160405180910390a35050565b6000808484111583901515613ad0576040517f08c379a00000000000000000000000000000000000000000000000000000000081526004018080602001828103825283818151815260200191508051906020019080838360005b83811015613a95578082015181840152602081019050613a7a565b50505050905090810190601f168015613ac25780820380516001836020036101000a031916815260200191505b509250505060405180910390fd5b508385039050809150509392505050565b6000806000841183901515613b91576040517f08c379a00000000000000000000000000000000000000000000000000000000081526004018080602001828103825283818151815260200191508051906020019080838360005b83811015613b56578082015181840152602081019050613b3b565b50505050905090810190601f168015613b835780820380516001836020036101000a031916815260200191505b509250505060405180910390fd5b508385811515613b9d57fe5b0490508091505093925050505600a165627a7a723058203393c601dba936b92ec593730c4f4ac0d8ecd6f3d5ffcf88d48cbbb637c1ee580029",
  "source": "pragma solidity ^0.4.24;\r\n\r\nimport \"./interfaces/IAirDrop.sol\";\r\nimport \"@cpchain-tools/cpchain-dapps-utils/contracts/token/ERC20/ERC20.sol\";\r\nimport \"@cpchain-tools/cpchain-dapps-utils/contracts/utils/math/SafeMath.sol\";\r\nimport \"@cpchain-tools/cpchain-dapps-utils/contracts/lifecycle/Enable.sol\";\r\n\r\ncontract AirDrop is IAirDrop, Enable, ERC20(\"CpchainAirDropToken\", \"CAT\", 18, 0) {\r\n\r\n    using SafeMath for uint256;\r\n\r\n    address owner; // owner has permissions to modify parameters\r\n\r\n    uint256 public airdrop_amount = 5 ether;\r\n    uint256 public reward = 5 ether;\r\n\r\n    uint public reward_cnt_limit = 100;\r\n\r\n    uint256 public recharge_token_radix = 100 ether; // \r\n    uint256 public recharge_token_coefficient = 10; // \r\n\r\n    uint256 public airdrop_token_radix = 100; // \r\n    uint256 public airdrop_token_coefficient = 1 ether; // \r\n    uint256 public airdrop_token_constant = 1 ether; // 0\r\n\r\n    struct Receiver {\r\n        address receiver;\r\n        bool received; // every address can only receiver airdrop once\r\n        uint reward_cnt;\r\n    }\r\n\r\n    mapping(address => Receiver) internal receivers;\r\n\r\n    mapping(address => bool) internal managers;\r\n    \r\n    constructor() public {\r\n        owner = msg.sender;\r\n    }\r\n\r\n    modifier onlyOwner() {\r\n        require(msg.sender == owner, \"You're not the owner of this contract\");\r\n        _;\r\n    }\r\n\r\n    modifier onlyManager() {\r\n        require(managers[msg.sender] == true, \"You're not the owner of this contract\");\r\n        _;\r\n    }\r\n\r\n\r\n    modifier onlyEnabled() {\r\n        require(enabled, \"The Contract is disabled\");\r\n        _;\r\n    }\r\n\r\n    function isManager(address user) public view returns(bool) {\r\n        return managers[user];\r\n    }\r\n\r\n    function tokenForNumber(uint number) public view returns(uint256) {\r\n        uint256 covert = 10 ** uint256(9);\r\n        uint256 denominator = number + airdrop_token_radix;\r\n        uint256 numerator = airdrop_token_radix.mul(covert);\r\n        uint256 token_for_number = numerator.div(denominator);\r\n        uint256 coefficient = airdrop_token_coefficient.div(covert);\r\n        token_for_number = token_for_number.mul(coefficient).add(airdrop_token_constant);\r\n\r\n        return(token_for_number);\r\n    }\r\n\r\n    /**  y = 10 * (x/(x + 100)), */\r\n    function tokenForAmount(uint256 amount) public view returns(uint256) {\r\n        uint256 covert = 10 ** uint256(9);\r\n        uint256 denominator = amount + recharge_token_radix; //   x + 100 \r\n        denominator = denominator.div(covert); // \r\n        uint256 token_for_amount = amount.div(denominator); // \r\n        token_for_amount = token_for_amount.mul(covert); \r\n        token_for_amount = token_for_amount.mul(recharge_token_coefficient); // \r\n        return token_for_amount;\r\n    }\r\n\r\n    /** change the amount in each airdrop */\r\n    function setAirDropAmount(uint256 new_airdrop_amount) public onlyEnabled onlyOwner {\r\n        require(new_airdrop_amount >= 1 ether, \"The amount can not be less than 1\");\r\n        require(new_airdrop_amount <= 100 ether, \"The amount can not be greater than 100\");\r\n        airdrop_amount = new_airdrop_amount;\r\n    }\r\n\r\n    /** change the reward for user invited newuser */\r\n    function setReward(uint256 new_reward) public onlyEnabled onlyOwner {\r\n        require(new_reward >= 1 ether, \"The reward can not be less than 1\");\r\n        require(new_reward <= 100 ether, \"The reward can not be greater than 100\");\r\n        reward = new_reward;\r\n    }\r\n\r\n    /** Change the maximum number of times each address can get a reward */\r\n    function setRewardCntLimit(uint new_reward_cnt_limit) public onlyEnabled onlyOwner {\r\n        require(new_reward_cnt_limit >= 1, \"The limit can not be less than 1\");\r\n        require(new_reward_cnt_limit <= 10000, \"The limit can not be greater than 10000\");\r\n        reward_cnt_limit = new_reward_cnt_limit;\r\n    }\r\n\r\n    function setManager(address _manager) public onlyEnabled onlyOwner {\r\n        require(managers[_manager] == false, \"This address was already manager\");\r\n        managers[_manager] = true;\r\n    }\r\n\r\n    function removeManager(address _manager) public onlyEnabled onlyOwner {\r\n        require(managers[_manager] == true, \"This address was no longer the manager\");\r\n        managers[_manager] = false;\r\n    }\r\n\r\n    function balanceOfCAT(address account) public view returns (uint256) {\r\n        return this.balanceOf(account);\r\n    }\r\n\r\n    /**\r\n     * \r\n     * @param target_addr \r\n     * @param inviter \r\n     */\r\n    function provideAirDrop(address target_addr, address inviter) external payable onlyEnabled onlyManager {\r\n        require(target_addr != inviter, \"target_addr cannot be inviter\");\r\n        require(address(this).balance > airdrop_amount * 2, \"balance of this contract is not enough to airdrop\");\r\n        receivers[target_addr].received = true;\r\n        target_addr.transfer(airdrop_amount);\r\n        uint256 target_airdrop_token = this.tokenForNumber(1);\r\n        ERC20._mint(target_addr, target_airdrop_token);\r\n        uint256 real_reward = 0;\r\n        if (inviter != address(0x0)) {\r\n            if (receivers[inviter].reward_cnt < reward_cnt_limit) {\r\n                receivers[inviter].reward_cnt += 1;\r\n                real_reward = reward;\r\n                inviter.transfer(reward);\r\n\r\n                uint256 inviter_airdrop_token = this.tokenForNumber(receivers[inviter].reward_cnt);\r\n                ERC20._mint(inviter, inviter_airdrop_token);\r\n            }\r\n        }\r\n        emit ProvideAirDrop(msg.sender, target_addr, inviter, airdrop_amount, real_reward); //emit event\r\n    }\r\n\r\n\r\n    function recharge() external payable {\r\n        uint256 recharge_token = this.tokenForAmount(msg.value);\r\n        ERC20._mint(msg.sender, recharge_token);\r\n        emit Recharge(msg.sender, msg.value);\r\n    }\r\n\r\n    function getContractBalance() public constant returns(uint) {\r\n        return address(this).balance;\r\n    }\r\n\r\n}\r\n",
  "sourcePath": "E:\\cpchain-dapps-airdrop\\contracts\\AirDrop.sol",
  "compiler": {
    "name": "solc",
    "version": "0.4.25+commit.59dbf8f1.Emscripten.clang"
  },
  "schemaVersion": "3.4.4",
  "updatedAt": "2022-07-21T03:08:50.434Z",
  "devdoc": {
    "methods": {
      "allowance(address,address)": {
        "details": "See `IERC20.allowance`."
      },
      "approve(address,uint256)": {
        "details": "See `IERC20.approve`.     * Requirements:     * - `spender` cannot be the zero address."
      },
      "balanceOf(address)": {
        "details": "See `IERC20.balanceOf`."
      },
      "claimOwnership()": {
        "details": "Allows the pendingOwner address to finalize the transfer."
      },
      "decimals()": {
        "details": "Returns the number of decimals used to get its user representation. For example, if `decimals` equals `2`, a balance of `505` tokens should be displayed to a user as `5,05` (`505 / 10 ** 2`).     * Tokens usually opt for a value of 18, imitating the relationship between Ether and Wei.     * > Note that this information is only used for _display_ purposes: it in no way affects any of the arithmetic of the contract, including `IERC20.balanceOf` and `IERC20.transfer`."
      },
      "decreaseAllowance(address,uint256)": {
        "details": "Atomically decreases the allowance granted to `spender` by the caller.     * This is an alternative to `approve` that can be used as a mitigation for problems described in `IERC20.approve`.     * Emits an `Approval` event indicating the updated allowance.     * Requirements:     * - `spender` cannot be the zero address. - `spender` must have allowance for the caller of at least `subtractedValue`."
      },
      "disableContract()": {
        "details": "set contract disable"
      },
      "enableContract()": {
        "details": "set contract enable"
      },
      "increaseAllowance(address,uint256)": {
        "details": "Atomically increases the allowance granted to `spender` by the caller.     * This is an alternative to `approve` that can be used as a mitigation for problems described in `IERC20.approve`.     * Emits an `Approval` event indicating the updated allowance.     * Requirements:     * - `spender` cannot be the zero address."
      },
      "name()": {
        "details": "Returns the name of the token."
      },
      "provideAirDrop(address,address)": {
        "params": {
          "inviter": "\r",
          "target_addr": "\r"
        }
      },
      "renounceOwnership()": {
        "details": "Leaves the contract without owner. It will not be possible to call `onlyOwner` functions anymore. Can only be called by the current owner.     * NOTE: Renouncing ownership will leave the contract without an owner, thereby removing any functionality that is only available to the owner."
      },
      "symbol()": {
        "details": "Returns the symbol of the token, usually a shorter version of the name."
      },
      "totalSupply()": {
        "details": "See `IERC20.totalSupply`."
      },
      "transfer(address,uint256)": {
        "details": "See `IERC20.transfer`.     * Requirements:     * - `recipient` cannot be the zero address. - the caller must have a balance of at least `amount`."
      },
      "transferFrom(address,address,uint256)": {
        "details": "See `IERC20.transferFrom`.     * Emits an `Approval` event indicating the updated allowance. This is not required by the EIP. See the note at the beginning of `ERC20`;     * Requirements: - `sender` and `recipient` cannot be the zero address. - `sender` must have a balance of at least `value`. - the caller must have allowance for `sender`'s tokens of at least `amount`."
      },
      "transferOwnership(address)": {
        "details": "Allows the current owner to set the pendingOwner address.",
        "params": {
          "newOwner": "The address to transfer ownership to."
        }
      }
    }
  },
  "userdoc": {
    "methods": {
      "provideAirDrop(address,address)": {
        "notice": "\r"
      },
      "setAirDropAmount(uint256)": {
        "notice": "change the amount in each airdrop "
      },
      "setReward(uint256)": {
        "notice": "change the reward for user invited newuser "
      },
      "setRewardCntLimit(uint256)": {
        "notice": "Change the maximum number of times each address can get a reward "
      },
      "tokenForAmount(uint256)": {
        "notice": " y = 10 * (x/(x + 100)), "
      }
    }
  }
}