{
  "contractName": "Hello",
  "abi": [
    {
      "constant": true,
      "inputs": [],
      "name": "hellotime",
      "outputs": [
        {
          "name": "",
          "type": "uint256"
        }
      ],
      "payable": false,
      "stateMutability": "view",
      "type": "function"
    },
    {
      "inputs": [],
      "payable": false,
      "stateMutability": "nonpayable",
      "type": "constructor"
    },
    {
      "anonymous": false,
      "inputs": [
        {
          "indexed": false,
          "name": "hellotime",
          "type": "uint256"
        }
      ],
      "name": "HelloToEveryOne",
      "type": "event"
    },
    {
      "anonymous": false,
      "inputs": [
        {
          "indexed": false,
          "name": "target",
          "type": "address"
        }
      ],
      "name": "HelloToSomeOne",
      "type": "event"
    },
    {
      "constant": false,
      "inputs": [],
      "name": "helloToEveryOne",
      "outputs": [],
      "payable": false,
      "stateMutability": "nonpayable",
      "type": "function"
    },
    {
      "constant": false,
      "inputs": [
        {
          "name": "target",
          "type": "address"
        }
      ],
      "name": "helloToSomeOne",
      "outputs": [],
      "payable": false,
      "stateMutability": "nonpayable",
      "type": "function"
    }
  ],
  "bytecode": "0x60806040526001805534801561001457600080fd5b50336000806101000a81548173ffffffffffffffffffffffffffffffffffffffff021916908373ffffffffffffffffffffffffffffffffffffffff16021790555061021f806100646000396000f300608060405260043610610057576000357c0100000000000000000000000000000000000000000000000000000000900463ffffffff16806301570cc21461005c57806310f553b01461009f5780632128e995146100b6575b600080fd5b34801561006857600080fd5b5061009d600480360381019080803573ffffffffffffffffffffffffffffffffffffffff1690602001909291905050506100e1565b005b3480156100ab57600080fd5b506100b46101a2565b005b3480156100c257600080fd5b506100cb6101ed565b6040518082815260200191505060405180910390f35b6001600260008373ffffffffffffffffffffffffffffffffffffffff1673ffffffffffffffffffffffffffffffffffffffff16815260200190815260200160002060000160146101000a81548160ff0219169083151502179055507f2bfebd16feaa3dbc69c20a2aec05f2b8fe953f7530e5c07bfc89682a3ffd303b81604051808273ffffffffffffffffffffffffffffffffffffffff1673ffffffffffffffffffffffffffffffffffffffff16815260200191505060405180910390a150565b600180600082825401925050819055507f845d757b1759e3b909865aad71e093a4c4649a414515ee96c3ebb2d0bd18ed736001546040518082815260200191505060405180910390a1565b600154815600a165627a7a72305820f9acaf18f0c888b3dce2c2504116532ad9749196955c231e661f23bee2ddae2c0029",
  "source": "// SPDX-License-Identifier: MIT\npragma solidity ^0.4.24;\n\nimport \"./interfaces/IHello.sol\";\n\ncontract Hello is IHello{\n  address owner;\n  \n  uint public hellotime = 1;\n\n  struct Helloed {\n    address helloer;\n    bool ishello;\n  }\n\n  mapping(address => Helloed) internal allhelloed;\n\n  constructor() public {\n    owner = msg.sender;\n  }\n\n  function helloToEveryOne() external {\n      hellotime += 1;\n      emit HelloToEveryOne(hellotime);\n  }\n\n  function helloToSomeOne(address target) external {\n      allhelloed[target].ishello = true;\n      emit HelloToSomeOne(target);\n  }\n}\n",
  "sourcePath": "E:\\chengtcode\\hellowordcontract\\contracts\\Hello.sol",
  "compiler": {
    "name": "solc",
    "version": "0.4.25+commit.59dbf8f1.Emscripten.clang"
  },
  "schemaVersion": "3.4.7",
  "updatedAt": "2022-06-29T02:38:06.916Z",
  "devdoc": {
    "methods": {}
  },
  "userdoc": {
    "methods": {}
  }
}